{
  "_format": "hh-sol-artifact-1",
  "contractName": "Dappcord",
  "sourceName": "contracts/Dappcord.sol",
  "abi": [
    {
      "inputs": [
        {
          "internalType": "string",
          "name": "_name",
          "type": "string"
        },
        {
          "internalType": "string",
          "name": "_symbol",
          "type": "string"
        }
      ],
      "stateMutability": "nonpayable",
      "type": "constructor"
    },
    {
      "anonymous": false,
      "inputs": [
        {
          "indexed": true,
          "internalType": "address",
          "name": "owner",
          "type": "address"
        },
        {
          "indexed": true,
          "internalType": "address",
          "name": "approved",
          "type": "address"
        },
        {
          "indexed": true,
          "internalType": "uint256",
          "name": "tokenId",
          "type": "uint256"
        }
      ],
      "name": "Approval",
      "type": "event"
    },
    {
      "anonymous": false,
      "inputs": [
        {
          "indexed": true,
          "internalType": "address",
          "name": "owner",
          "type": "address"
        },
        {
          "indexed": true,
          "internalType": "address",
          "name": "operator",
          "type": "address"
        },
        {
          "indexed": false,
          "internalType": "bool",
          "name": "approved",
          "type": "bool"
        }
      ],
      "name": "ApprovalForAll",
      "type": "event"
    },
    {
      "anonymous": false,
      "inputs": [
        {
          "indexed": true,
          "internalType": "address",
          "name": "from",
          "type": "address"
        },
        {
          "indexed": true,
          "internalType": "address",
          "name": "to",
          "type": "address"
        },
        {
          "indexed": true,
          "internalType": "uint256",
          "name": "tokenId",
          "type": "uint256"
        }
      ],
      "name": "Transfer",
      "type": "event"
    },
    {
      "inputs": [
        {
          "internalType": "address",
          "name": "to",
          "type": "address"
        },
        {
          "internalType": "uint256",
          "name": "tokenId",
          "type": "uint256"
        }
      ],
      "name": "approve",
      "outputs": [],
      "stateMutability": "nonpayable",
      "type": "function"
    },
    {
      "inputs": [
        {
          "internalType": "address",
          "name": "owner",
          "type": "address"
        }
      ],
      "name": "balanceOf",
      "outputs": [
        {
          "internalType": "uint256",
          "name": "",
          "type": "uint256"
        }
      ],
      "stateMutability": "view",
      "type": "function"
    },
    {
      "inputs": [
        {
          "internalType": "uint256",
          "name": "tokenId",
          "type": "uint256"
        }
      ],
      "name": "getApproved",
      "outputs": [
        {
          "internalType": "address",
          "name": "",
          "type": "address"
        }
      ],
      "stateMutability": "view",
      "type": "function"
    },
    {
      "inputs": [
        {
          "internalType": "address",
          "name": "owner",
          "type": "address"
        },
        {
          "internalType": "address",
          "name": "operator",
          "type": "address"
        }
      ],
      "name": "isApprovedForAll",
      "outputs": [
        {
          "internalType": "bool",
          "name": "",
          "type": "bool"
        }
      ],
      "stateMutability": "view",
      "type": "function"
    },
    {
      "inputs": [],
      "name": "name",
      "outputs": [
        {
          "internalType": "string",
          "name": "",
          "type": "string"
        }
      ],
      "stateMutability": "view",
      "type": "function"
    },
    {
      "inputs": [],
      "name": "owner",
      "outputs": [
        {
          "internalType": "address",
          "name": "",
          "type": "address"
        }
      ],
      "stateMutability": "view",
      "type": "function"
    },
    {
      "inputs": [
        {
          "internalType": "uint256",
          "name": "tokenId",
          "type": "uint256"
        }
      ],
      "name": "ownerOf",
      "outputs": [
        {
          "internalType": "address",
          "name": "",
          "type": "address"
        }
      ],
      "stateMutability": "view",
      "type": "function"
    },
    {
      "inputs": [
        {
          "internalType": "address",
          "name": "from",
          "type": "address"
        },
        {
          "internalType": "address",
          "name": "to",
          "type": "address"
        },
        {
          "internalType": "uint256",
          "name": "tokenId",
          "type": "uint256"
        }
      ],
      "name": "safeTransferFrom",
      "outputs": [],
      "stateMutability": "nonpayable",
      "type": "function"
    },
    {
      "inputs": [
        {
          "internalType": "address",
          "name": "from",
          "type": "address"
        },
        {
          "internalType": "address",
          "name": "to",
          "type": "address"
        },
        {
          "internalType": "uint256",
          "name": "tokenId",
          "type": "uint256"
        },
        {
          "internalType": "bytes",
          "name": "data",
          "type": "bytes"
        }
      ],
      "name": "safeTransferFrom",
      "outputs": [],
      "stateMutability": "nonpayable",
      "type": "function"
    },
    {
      "inputs": [
        {
          "internalType": "address",
          "name": "operator",
          "type": "address"
        },
        {
          "internalType": "bool",
          "name": "approved",
          "type": "bool"
        }
      ],
      "name": "setApprovalForAll",
      "outputs": [],
      "stateMutability": "nonpayable",
      "type": "function"
    },
    {
      "inputs": [
        {
          "internalType": "bytes4",
          "name": "interfaceId",
          "type": "bytes4"
        }
      ],
      "name": "supportsInterface",
      "outputs": [
        {
          "internalType": "bool",
          "name": "",
          "type": "bool"
        }
      ],
      "stateMutability": "view",
      "type": "function"
    },
    {
      "inputs": [],
      "name": "symbol",
      "outputs": [
        {
          "internalType": "string",
          "name": "",
          "type": "string"
        }
      ],
      "stateMutability": "view",
      "type": "function"
    },
    {
      "inputs": [
        {
          "internalType": "uint256",
          "name": "tokenId",
          "type": "uint256"
        }
      ],
      "name": "tokenURI",
      "outputs": [
        {
          "internalType": "string",
          "name": "",
          "type": "string"
        }
      ],
      "stateMutability": "view",
      "type": "function"
    },
    {
      "inputs": [
        {
          "internalType": "address",
          "name": "from",
          "type": "address"
        },
        {
          "internalType": "address",
          "name": "to",
          "type": "address"
        },
        {
          "internalType": "uint256",
          "name": "tokenId",
          "type": "uint256"
        }
      ],
      "name": "transferFrom",
      "outputs": [],
      "stateMutability": "nonpayable",
      "type": "function"
    }
  ],
  "bytecode": "0x60806040523480156200001157600080fd5b50604051620029383803806200293883398181016040528101906200003791906200023b565b818181600090816200004a91906200050b565b5080600190816200005c91906200050b565b50505033600660006101000a81548173ffffffffffffffffffffffffffffffffffffffff021916908373ffffffffffffffffffffffffffffffffffffffff1602179055505050620005f2565b6000604051905090565b600080fd5b600080fd5b600080fd5b600080fd5b6000601f19601f8301169050919050565b7f4e487b7100000000000000000000000000000000000000000000000000000000600052604160045260246000fd5b6200011182620000c6565b810181811067ffffffffffffffff82111715620001335762000132620000d7565b5b80604052505050565b600062000148620000a8565b905062000156828262000106565b919050565b600067ffffffffffffffff821115620001795762000178620000d7565b5b6200018482620000c6565b9050602081019050919050565b60005b83811015620001b157808201518184015260208101905062000194565b60008484015250505050565b6000620001d4620001ce846200015b565b6200013c565b905082815260208101848484011115620001f357620001f2620000c1565b5b6200020084828562000191565b509392505050565b600082601f83011262000220576200021f620000bc565b5b815162000232848260208601620001bd565b91505092915050565b60008060408385031215620002555762000254620000b2565b5b600083015167ffffffffffffffff811115620002765762000275620000b7565b5b620002848582860162000208565b925050602083015167ffffffffffffffff811115620002a857620002a7620000b7565b5b620002b68582860162000208565b9150509250929050565b600081519050919050565b7f4e487b7100000000000000000000000000000000000000000000000000000000600052602260045260246000fd5b600060028204905060018216806200031357607f821691505b602082108103620003295762000328620002cb565b5b50919050565b60008190508160005260206000209050919050565b60006020601f8301049050919050565b600082821b905092915050565b600060088302620003937fffffffffffffffffffffffffffffffffffffffffffffffffffffffffffffffff8262000354565b6200039f868362000354565b95508019841693508086168417925050509392505050565b6000819050919050565b6000819050919050565b6000620003ec620003e6620003e084620003b7565b620003c1565b620003b7565b9050919050565b6000819050919050565b6200040883620003cb565b620004206200041782620003f3565b84845462000361565b825550505050565b600090565b6200043762000428565b62000444818484620003fd565b505050565b5b818110156200046c57620004606000826200042d565b6001810190506200044a565b5050565b601f821115620004bb5762000485816200032f565b620004908462000344565b81016020851015620004a0578190505b620004b8620004af8562000344565b83018262000449565b50505b505050565b600082821c905092915050565b6000620004e060001984600802620004c0565b1980831691505092915050565b6000620004fb8383620004cd565b9150826002028217905092915050565b6200051682620002c0565b67ffffffffffffffff811115620005325762000531620000d7565b5b6200053e8254620002fa565b6200054b82828562000470565b600060209050601f8311600181146200058357600084156200056e578287015190505b6200057a8582620004ed565b865550620005ea565b601f19841662000593866200032f565b60005b82811015620005bd5784890151825560018201915060208501945060208101905062000596565b86831015620005dd5784890151620005d9601f891682620004cd565b8355505b6001600288020188555050505b505050505050565b61233680620006026000396000f3fe608060405234801561001057600080fd5b50600436106100ea5760003560e01c806370a082311161008c578063a22cb46511610066578063a22cb4651461025d578063b88d4fde14610279578063c87b56dd14610295578063e985e9c5146102c5576100ea565b806370a08231146101f15780638da5cb5b1461022157806395d89b411461023f576100ea565b8063095ea7b3116100c8578063095ea7b31461016d57806323b872dd1461018957806342842e0e146101a55780636352211e146101c1576100ea565b806301ffc9a7146100ef57806306fdde031461011f578063081812fc1461013d575b600080fd5b61010960048036038101906101049190611673565b6102f5565b60405161011691906116bb565b60405180910390f35b6101276103d7565b6040516101349190611766565b60405180910390f35b610157600480360381019061015291906117be565b610469565b604051610164919061182c565b60405180910390f35b61018760048036038101906101829190611873565b6104af565b005b6101a3600480360381019061019e91906118b3565b6105c6565b005b6101bf60048036038101906101ba91906118b3565b610626565b005b6101db60048036038101906101d691906117be565b610646565b6040516101e8919061182c565b60405180910390f35b61020b60048036038101906102069190611906565b6106cc565b6040516102189190611942565b60405180910390f35b610229610783565b604051610236919061182c565b60405180910390f35b6102476107a9565b6040516102549190611766565b60405180910390f35b61027760048036038101906102729190611989565b61083b565b005b610293600480360381019061028e9190611afe565b610851565b005b6102af60048036038101906102aa91906117be565b6108b3565b6040516102bc9190611766565b60405180910390f35b6102df60048036038101906102da9190611b81565b61091b565b6040516102ec91906116bb565b60405180910390f35b60007f80ac58cd000000000000000000000000000000000000000000000000000000007bffffffffffffffffffffffffffffffffffffffffffffffffffffffff1916827bffffffffffffffffffffffffffffffffffffffffffffffffffffffff191614806103c057507f5b5e139f000000000000000000000000000000000000000000000000000000007bffffffffffffffffffffffffffffffffffffffffffffffffffffffff1916827bffffffffffffffffffffffffffffffffffffffffffffffffffffffff1916145b806103d057506103cf826109af565b5b9050919050565b6060600080546103e690611bf0565b80601f016020809104026020016040519081016040528092919081815260200182805461041290611bf0565b801561045f5780601f106104345761010080835404028352916020019161045f565b820191906000526020600020905b81548152906001019060200180831161044257829003601f168201915b5050505050905090565b600061047482610a19565b6004600083815260200190815260200160002060009054906101000a900473ffffffffffffffffffffffffffffffffffffffff169050919050565b60006104ba82610646565b90508073ffffffffffffffffffffffffffffffffffffffff168373ffffffffffffffffffffffffffffffffffffffff160361052a576040517f08c379a000000000000000000000000000000000000000000000000000000000815260040161052190611c93565b60405180910390fd5b8073ffffffffffffffffffffffffffffffffffffffff16610549610a64565b73ffffffffffffffffffffffffffffffffffffffff161480610578575061057781610572610a64565b61091b565b5b6105b7576040517f08c379a00000000000000000000000000000000000000000000000000000000081526004016105ae90611d25565b60405180910390fd5b6105c18383610a6c565b505050565b6105d76105d1610a64565b82610b25565b610616576040517f08c379a000000000000000000000000000000000000000000000000000000000815260040161060d90611db7565b60405180910390fd5b610621838383610bba565b505050565b61064183838360405180602001604052806000815250610851565b505050565b60008061065283610eb3565b9050600073ffffffffffffffffffffffffffffffffffffffff168173ffffffffffffffffffffffffffffffffffffffff16036106c3576040517f08c379a00000000000000000000000000000000000000000000000000000000081526004016106ba90611e23565b60405180910390fd5b80915050919050565b60008073ffffffffffffffffffffffffffffffffffffffff168273ffffffffffffffffffffffffffffffffffffffff160361073c576040517f08c379a000000000000000000000000000000000000000000000000000000000815260040161073390611eb5565b60405180910390fd5b600360008373ffffffffffffffffffffffffffffffffffffffff1673ffffffffffffffffffffffffffffffffffffffff168152602001908152602001600020549050919050565b600660009054906101000a900473ffffffffffffffffffffffffffffffffffffffff1681565b6060600180546107b890611bf0565b80601f01602080910402602001604051908101604052809291908181526020018280546107e490611bf0565b80156108315780601f1061080657610100808354040283529160200191610831565b820191906000526020600020905b81548152906001019060200180831161081457829003601f168201915b5050505050905090565b61084d610846610a64565b8383610ef0565b5050565b61086261085c610a64565b83610b25565b6108a1576040517f08c379a000000000000000000000000000000000000000000000000000000000815260040161089890611db7565b60405180910390fd5b6108ad8484848461105c565b50505050565b60606108be82610a19565b60006108c86110b8565b905060008151116108e85760405180602001604052806000815250610913565b806108f2846110cf565b604051602001610903929190611f11565b6040516020818303038152906040525b915050919050565b6000600560008473ffffffffffffffffffffffffffffffffffffffff1673ffffffffffffffffffffffffffffffffffffffff16815260200190815260200160002060008373ffffffffffffffffffffffffffffffffffffffff1673ffffffffffffffffffffffffffffffffffffffff16815260200190815260200160002060009054906101000a900460ff16905092915050565b60007f01ffc9a7000000000000000000000000000000000000000000000000000000007bffffffffffffffffffffffffffffffffffffffffffffffffffffffff1916827bffffffffffffffffffffffffffffffffffffffffffffffffffffffff1916149050919050565b610a228161119d565b610a61576040517f08c379a0000000000000000000000000000000000000000000000000000000008152600401610a5890611e23565b60405180910390fd5b50565b600033905090565b816004600083815260200190815260200160002060006101000a81548173ffffffffffffffffffffffffffffffffffffffff021916908373ffffffffffffffffffffffffffffffffffffffff160217905550808273ffffffffffffffffffffffffffffffffffffffff16610adf83610646565b73ffffffffffffffffffffffffffffffffffffffff167f8c5be1e5ebec7d5bd14f71427d1e84f3dd0314c0f7b2291e5b200ac8c7c3b92560405160405180910390a45050565b600080610b3183610646565b90508073ffffffffffffffffffffffffffffffffffffffff168473ffffffffffffffffffffffffffffffffffffffff161480610b735750610b72818561091b565b5b80610bb157508373ffffffffffffffffffffffffffffffffffffffff16610b9984610469565b73ffffffffffffffffffffffffffffffffffffffff16145b91505092915050565b8273ffffffffffffffffffffffffffffffffffffffff16610bda82610646565b73ffffffffffffffffffffffffffffffffffffffff1614610c30576040517f08c379a0000000000000000000000000000000000000000000000000000000008152600401610c2790611fa7565b60405180910390fd5b600073ffffffffffffffffffffffffffffffffffffffff168273ffffffffffffffffffffffffffffffffffffffff1603610c9f576040517f08c379a0000000000000000000000000000000000000000000000000000000008152600401610c9690612039565b60405180910390fd5b610cac83838360016111de565b8273ffffffffffffffffffffffffffffffffffffffff16610ccc82610646565b73ffffffffffffffffffffffffffffffffffffffff1614610d22576040517f08c379a0000000000000000000000000000000000000000000000000000000008152600401610d1990611fa7565b60405180910390fd5b6004600082815260200190815260200160002060006101000a81549073ffffffffffffffffffffffffffffffffffffffff02191690556001600360008573ffffffffffffffffffffffffffffffffffffffff1673ffffffffffffffffffffffffffffffffffffffff168152602001908152602001600020600082825403925050819055506001600360008473ffffffffffffffffffffffffffffffffffffffff1673ffffffffffffffffffffffffffffffffffffffff16815260200190815260200160002060008282540192505081905550816002600083815260200190815260200160002060006101000a81548173ffffffffffffffffffffffffffffffffffffffff021916908373ffffffffffffffffffffffffffffffffffffffff160217905550808273ffffffffffffffffffffffffffffffffffffffff168473ffffffffffffffffffffffffffffffffffffffff167fddf252ad1be2c89b69c2b068fc378daa952ba7f163c4a11628f55a4df523b3ef60405160405180910390a4610eae8383836001611304565b505050565b60006002600083815260200190815260200160002060009054906101000a900473ffffffffffffffffffffffffffffffffffffffff169050919050565b8173ffffffffffffffffffffffffffffffffffffffff168373ffffffffffffffffffffffffffffffffffffffff1603610f5e576040517f08c379a0000000000000000000000000000000000000000000000000000000008152600401610f55906120a5565b60405180910390fd5b80600560008573ffffffffffffffffffffffffffffffffffffffff1673ffffffffffffffffffffffffffffffffffffffff16815260200190815260200160002060008473ffffffffffffffffffffffffffffffffffffffff1673ffffffffffffffffffffffffffffffffffffffff16815260200190815260200160002060006101000a81548160ff0219169083151502179055508173ffffffffffffffffffffffffffffffffffffffff168373ffffffffffffffffffffffffffffffffffffffff167f17307eab39ab6107e8899845ad3d59bd9653f200f220920489ca2b5937696c318360405161104f91906116bb565b60405180910390a3505050565b611067848484610bba565b6110738484848461130a565b6110b2576040517f08c379a00000000000000000000000000000000000000000000000000000000081526004016110a990612137565b60405180910390fd5b50505050565b606060405180602001604052806000815250905090565b6060600060016110de84611491565b01905060008167ffffffffffffffff8111156110fd576110fc6119d3565b5b6040519080825280601f01601f19166020018201604052801561112f5781602001600182028036833780820191505090505b509050600082602001820190505b600115611192578080600190039150507f3031323334353637383961626364656600000000000000000000000000000000600a86061a8153600a858161118657611185612157565b5b0494506000850361113d575b819350505050919050565b60008073ffffffffffffffffffffffffffffffffffffffff166111bf83610eb3565b73ffffffffffffffffffffffffffffffffffffffff1614159050919050565b60018111156112fe57600073ffffffffffffffffffffffffffffffffffffffff168473ffffffffffffffffffffffffffffffffffffffff16146112725780600360008673ffffffffffffffffffffffffffffffffffffffff1673ffffffffffffffffffffffffffffffffffffffff168152602001908152602001600020600082825461126a91906121b5565b925050819055505b600073ffffffffffffffffffffffffffffffffffffffff168373ffffffffffffffffffffffffffffffffffffffff16146112fd5780600360008573ffffffffffffffffffffffffffffffffffffffff1673ffffffffffffffffffffffffffffffffffffffff16815260200190815260200160002060008282546112f591906121e9565b925050819055505b5b50505050565b50505050565b600061132b8473ffffffffffffffffffffffffffffffffffffffff166115e4565b15611484578373ffffffffffffffffffffffffffffffffffffffff1663150b7a02611354610a64565b8786866040518563ffffffff1660e01b81526004016113769493929190612272565b6020604051808303816000875af19250505080156113b257506040513d601f19601f820116820180604052508101906113af91906122d3565b60015b611434573d80600081146113e2576040519150601f19603f3d011682016040523d82523d6000602084013e6113e7565b606091505b50600081510361142c576040517f08c379a000000000000000000000000000000000000000000000000000000000815260040161142390612137565b60405180910390fd5b805181602001fd5b63150b7a0260e01b7bffffffffffffffffffffffffffffffffffffffffffffffffffffffff1916817bffffffffffffffffffffffffffffffffffffffffffffffffffffffff191614915050611489565b600190505b949350505050565b600080600090507a184f03e93ff9f4daa797ed6e38ed64bf6a1f01000000000000000083106114ef577a184f03e93ff9f4daa797ed6e38ed64bf6a1f01000000000000000083816114e5576114e4612157565b5b0492506040810190505b6d04ee2d6d415b85acef8100000000831061152c576d04ee2d6d415b85acef8100000000838161152257611521612157565b5b0492506020810190505b662386f26fc10000831061155b57662386f26fc10000838161155157611550612157565b5b0492506010810190505b6305f5e1008310611584576305f5e100838161157a57611579612157565b5b0492506008810190505b61271083106115a957612710838161159f5761159e612157565b5b0492506004810190505b606483106115cc57606483816115c2576115c1612157565b5b0492506002810190505b600a83106115db576001810190505b80915050919050565b6000808273ffffffffffffffffffffffffffffffffffffffff163b119050919050565b6000604051905090565b600080fd5b600080fd5b60007fffffffff0000000000000000000000000000000000000000000000000000000082169050919050565b6116508161161b565b811461165b57600080fd5b50565b60008135905061166d81611647565b92915050565b60006020828403121561168957611688611611565b5b60006116978482850161165e565b91505092915050565b60008115159050919050565b6116b5816116a0565b82525050565b60006020820190506116d060008301846116ac565b92915050565b600081519050919050565b600082825260208201905092915050565b60005b838110156117105780820151818401526020810190506116f5565b60008484015250505050565b6000601f19601f8301169050919050565b6000611738826116d6565b61174281856116e1565b93506117528185602086016116f2565b61175b8161171c565b840191505092915050565b60006020820190508181036000830152611780818461172d565b905092915050565b6000819050919050565b61179b81611788565b81146117a657600080fd5b50565b6000813590506117b881611792565b92915050565b6000602082840312156117d4576117d3611611565b5b60006117e2848285016117a9565b91505092915050565b600073ffffffffffffffffffffffffffffffffffffffff82169050919050565b6000611816826117eb565b9050919050565b6118268161180b565b82525050565b6000602082019050611841600083018461181d565b92915050565b6118508161180b565b811461185b57600080fd5b50565b60008135905061186d81611847565b92915050565b6000806040838503121561188a57611889611611565b5b60006118988582860161185e565b92505060206118a9858286016117a9565b9150509250929050565b6000806000606084860312156118cc576118cb611611565b5b60006118da8682870161185e565b93505060206118eb8682870161185e565b92505060406118fc868287016117a9565b9150509250925092565b60006020828403121561191c5761191b611611565b5b600061192a8482850161185e565b91505092915050565b61193c81611788565b82525050565b60006020820190506119576000830184611933565b92915050565b611966816116a0565b811461197157600080fd5b50565b6000813590506119838161195d565b92915050565b600080604083850312156119a05761199f611611565b5b60006119ae8582860161185e565b92505060206119bf85828601611974565b9150509250929050565b600080fd5b600080fd5b7f4e487b7100000000000000000000000000000000000000000000000000000000600052604160045260246000fd5b611a0b8261171c565b810181811067ffffffffffffffff82111715611a2a57611a296119d3565b5b80604052505050565b6000611a3d611607565b9050611a498282611a02565b919050565b600067ffffffffffffffff821115611a6957611a686119d3565b5b611a728261171c565b9050602081019050919050565b82818337600083830152505050565b6000611aa1611a9c84611a4e565b611a33565b905082815260208101848484011115611abd57611abc6119ce565b5b611ac8848285611a7f565b509392505050565b600082601f830112611ae557611ae46119c9565b5b8135611af5848260208601611a8e565b91505092915050565b60008060008060808587031215611b1857611b17611611565b5b6000611b268782880161185e565b9450506020611b378782880161185e565b9350506040611b48878288016117a9565b925050606085013567ffffffffffffffff811115611b6957611b68611616565b5b611b7587828801611ad0565b91505092959194509250565b60008060408385031215611b9857611b97611611565b5b6000611ba68582860161185e565b9250506020611bb78582860161185e565b9150509250929050565b7f4e487b7100000000000000000000000000000000000000000000000000000000600052602260045260246000fd5b60006002820490506001821680611c0857607f821691505b602082108103611c1b57611c1a611bc1565b5b50919050565b7f4552433732313a20617070726f76616c20746f2063757272656e74206f776e6560008201527f7200000000000000000000000000000000000000000000000000000000000000602082015250565b6000611c7d6021836116e1565b9150611c8882611c21565b604082019050919050565b60006020820190508181036000830152611cac81611c70565b9050919050565b7f4552433732313a20617070726f76652063616c6c6572206973206e6f7420746f60008201527f6b656e206f776e6572206f7220617070726f76656420666f7220616c6c000000602082015250565b6000611d0f603d836116e1565b9150611d1a82611cb3565b604082019050919050565b60006020820190508181036000830152611d3e81611d02565b9050919050565b7f4552433732313a2063616c6c6572206973206e6f7420746f6b656e206f776e6560008201527f72206f7220617070726f76656400000000000000000000000000000000000000602082015250565b6000611da1602d836116e1565b9150611dac82611d45565b604082019050919050565b60006020820190508181036000830152611dd081611d94565b9050919050565b7f4552433732313a20696e76616c696420746f6b656e2049440000000000000000600082015250565b6000611e0d6018836116e1565b9150611e1882611dd7565b602082019050919050565b60006020820190508181036000830152611e3c81611e00565b9050919050565b7f4552433732313a2061646472657373207a65726f206973206e6f74206120766160008201527f6c6964206f776e65720000000000000000000000000000000000000000000000602082015250565b6000611e9f6029836116e1565b9150611eaa82611e43565b604082019050919050565b60006020820190508181036000830152611ece81611e92565b9050919050565b600081905092915050565b6000611eeb826116d6565b611ef58185611ed5565b9350611f058185602086016116f2565b80840191505092915050565b6000611f1d8285611ee0565b9150611f298284611ee0565b91508190509392505050565b7f4552433732313a207472616e736665722066726f6d20696e636f72726563742060008201527f6f776e6572000000000000000000000000000000000000000000000000000000602082015250565b6000611f916025836116e1565b9150611f9c82611f35565b604082019050919050565b60006020820190508181036000830152611fc081611f84565b9050919050565b7f4552433732313a207472616e7366657220746f20746865207a65726f2061646460008201527f7265737300000000000000000000000000000000000000000000000000000000602082015250565b60006120236024836116e1565b915061202e82611fc7565b604082019050919050565b6000602082019050818103600083015261205281612016565b9050919050565b7f4552433732313a20617070726f766520746f2063616c6c657200000000000000600082015250565b600061208f6019836116e1565b915061209a82612059565b602082019050919050565b600060208201905081810360008301526120be81612082565b9050919050565b7f4552433732313a207472616e7366657220746f206e6f6e20455243373231526560008201527f63656976657220696d706c656d656e7465720000000000000000000000000000602082015250565b60006121216032836116e1565b915061212c826120c5565b604082019050919050565b6000602082019050818103600083015261215081612114565b9050919050565b7f4e487b7100000000000000000000000000000000000000000000000000000000600052601260045260246000fd5b7f4e487b7100000000000000000000000000000000000000000000000000000000600052601160045260246000fd5b60006121c082611788565b91506121cb83611788565b92508282039050818111156121e3576121e2612186565b5b92915050565b60006121f482611788565b91506121ff83611788565b925082820190508082111561221757612216612186565b5b92915050565b600081519050919050565b600082825260208201905092915050565b60006122448261221d565b61224e8185612228565b935061225e8185602086016116f2565b6122678161171c565b840191505092915050565b6000608082019050612287600083018761181d565b612294602083018661181d565b6122a16040830185611933565b81810360608301526122b38184612239565b905095945050505050565b6000815190506122cd81611647565b92915050565b6000602082840312156122e9576122e8611611565b5b60006122f7848285016122be565b9150509291505056fea2646970667358221220d5c28ba07cbdb197a03c8c4dcd897f21813cd0e25eab6336d367a22dc856c63764736f6c63430008110033",
  "linkReferences": {},
  "deployedLinkReferences": {}
}